:10000000970200089382020013810200970000000B
:10001000E780804597000000E780400D6F000000FA
:0C002000678000006F0000006F0000000F
:10003000130101FE2326A1002324B10083278100A0
:1000400093F7F701232EF1008327C1000327C10195
:1000500033D7E7008326C101B306D04093F6F601FB
:10006000B397D700B3E7E700138507001301010238
:1000700067800000130101FE2326A1008327C10031
:1000800093F7F70F232EF1008327C10093D7870042
:1000900093F7F70F232CF1008327C10093D70701B3
:1000A00093F7F70F232AF1008327C10093D7870125
:1000B0002328F1008327C10113978700832781013B
:1000C0003367F70083274101939787013367F70070
:1000D0008327010193970701B367F7001385070092
:1000E0001301010267800000130101FF23261100A4
:1000F000B727000013850758EF000052B72700000C
:10010000138587C8EF00D04FEF004004EF00C00810
:10011000EF00800CEF008010EF008014EF008018DB
:10012000EF00401CEF000020EF000024B727000084
:10013000138507CBEF00D04C930700001385070011
:100140008320C1001301010167800000130101FE3B
:10015000232E11009307A0002326F100B707040007
:1001600083A707002322F1008327C100370704007B
:10017000AF27F7082324F10083258100B72700006B
:100180001385C7CCEF00D047130000008320C101C6
:100190001301010267800000130101FE232E1100EC
:1001A0009307A0002326F1000327C1009307410015
:1001B000AFA7E7002324F10083258100B7270000C3
:1001C000138587CEEF00D043130000008320C101C8
:1001D0001301010267800000130101FE232E1100AC
:1001E000B7473322938757452326F1000327C100E1
:1001F00093074100AFA7E7202324F1008325810066
:10020000B7270000138547D0EF00903F1300000090
:100210008320C1011301010267800000130101FE68
:10022000232E1100B7473322938757452326F10029
:100230000327C10093074100AFA7E7602324F10023
:1002400083258100B7270000138507D2EF00503BBC
:10025000130000008320C101130101026780000028
:10026000130101FE232E1100B74733229387574510
:100270002326F1000327C10093074100AFA7E74001
:100280002324F10083258100B72700001385C7D3FD
:10029000EF001037130000008320C1011301010299
:1002A00067800000130101FE232E11009307A000B8
:1002B0002326F1000327C10093074100AFA7E78081
:1002C0002324F10083258100B7270000138547D53B
:1002D000EF001033130000008320C101130101025D
:1002E00067800000130101FE232E11009307A00078
:1002F0002326F1000327C10093074100AFA7E7A021
:100300002324F10083258100B7270000138507D738
:10031000EF00102F130000008320C1011301010220
:1003200067800000130101FE232E1100B74733221E
:10033000938757452326F1000327C1009307410007
:10034000AFA7E7C02324F10083258100B727000071
:100350001385C7D8EF00D02A130000008320C10105
:100360001301010267800000130101FE232E11001A
:10037000B7473322938757452326F1000327C1004F
:1003800093074100AFA7E7E02324F1008325810014
:10039000B7270000138587DAEF00902613000000CE
:1003A0008320C1011301010267800000130101FED7
:1003B0002326A1002324B1008327810093F7F701AE
:1003C000232EF1008327C1000327C10133D7E700A3
:1003D0008326C101B306D04093F6F601B397D70048
:1003E000B3E7E700138507001301010267800000EF
:1003F000130101FE2326A1008327C10093F7F70F05
:10040000232EF1008327C10093D7870093F7F70FBE
:10041000232CF1008327C10093D7070193F7F70F2F
:10042000232AF1008327C10093D787012328F100F5
:100430008327C10113978700832781013367F70062
:1004400083274101939787013367F70083270101D1
:1004500093970701B367F7001385070013010102A3
:1004600067800000B7670000F3B7A77CB7270800D4
:1004700093873760F3A7A77C7327A07CB707080092
:10048000B377F700638C0700130000007327A07C8C
:10049000B7071000B377F700E38A07FE6780000014
:1004A00013000000130101FE232E1100B7270000E6
:1004B000138787DEB7270000938707DEB307F7406F
:1004C0002326F100B7270000938707DE0327C1002A
:1004D000130607009305000013850700EF10007056
:1004E000130000008320C101130101026780000096
:1004F000130101FFB70710F01307000023A8E7045A
:10050000F327007D93F727006382070293073000EB
:100510002326F100B70700E42324F100832781009C
:100520000327C10023A0E7006F00400293071000DB
:100530002322F100B70700E42320F1008327010004
:100540000327410023A0E7001300000093070014D5
:10055000F3A7077D1300000013010101678000006D
:10056000130101FE2326A1002324B100832781006B
:1005700093F7F701232EF1008327C1000327C10160
:1005800033D7E7008326C101B306D04093F6F601C6
:10059000B397D700B3E7E700138507001301010203
:1005A00067800000130101FE2326A1008327C100FC
:1005B00093F7F70F232EF1008327C10093D787000D
:1005C00093F7F70F232CF1008327C10093D707017E
:1005D00093F7F70F232AF1008327C10093D78701F0
:1005E0002328F1008327C101139787008327810106
:1005F0003367F70083274101939787013367F7003B
:100600008327010193970701B367F700138507005C
:100610001301010267800000130101FF2326A100DE
:10062000B70730F003A7C702B70730F01367070812
:1006300023A6E7020327C100B7C7BE00938707C2FE
:10064000B307F700139737008327C100939747003C
:100650003357F702B70730F01377F70F23A0E702FD
:100660000327C100B7C7BE00938707C2B307F700CF
:10067000139737008327C10093974700B357F702BA
:1006800013D78700B70730F01377F70F23A2E702DD
:10069000B70730F01307300023A6E702B70730F0A2
:1006A0001307700023A4E7021300000013010101E7
:1006B0006780000013000000B70730F083A74703EE
:1006C00093F71700E38A07FEB70730F083A7070206
:1006D0001385070067800000130101FF2326A10096
:1006E00013000000B70730F083A7470393F7070212
:1006F000E38A07FEB70730F00327C10023A0E70213
:10070000130000001301010167800000130101FDC7
:10071000232611022326A100232E01006F0040048E
:100720008327C10083C7070013850700EFF0DFFAB6
:100730008327C10003C707009307A0006316F700D3
:100740001305D000EFF05FF98327C10093871700EE
:100750002326F1008327C10193871700232EF10080
:100760008327C10083C70700E39C07FA8327C101E1
:10077000138507008320C102130101036780000075
:10078000130101FE232E11002326A1000325C10021
:10079000EFF09FF40327C1009307A0006316F70052
:1007A0001305D000EFF05FF38327C1001385070026
:1007B0008320C1011301010267800000130101FEC3
:1007C000232E11002326A1002324B1008327C1007A
:1007D000638807028327C10083A7070003278100DE
:1007E0001377F70F2380E7008327C10083A7070053
:1007F000138717008327C10023A0E7006F00C00004
:1008000003258100EFF0DFF7130000008320C10112
:100810001301010267800000130101FD232611026C
:10082000232481022322910223202103232E31013C
:100830002326A1002324B1002322C1002320D100BC
:100840001304000093090002832741006356F0045B
:1008500093040000032981006F00C00093841400FA
:100860001309190083470900E39A07FE8327410013
:1008700063C6F400232201006F00000183274100BA
:10088000B38797402322F1008327010093F72700C5
:1008900063840700930900038327010093F717007F
:1008A000639A07046F000002938509000325C100C5
:1008B000EFF0DFF013041400832741009387F7FF64
:1008C0002322F10083274100E340F0FE6F00800205
:1008D0008327810083C70700938507000325C10094
:1008E000EFF0DFED130414008327810093871700D6
:1008F0002324F1008327810083C70700E39A07FCC4
:100900006F000002938509000325C100EFF01FEB83
:1009100013041400832741009387F7FF2322F1007B
:1009200083274100E340F0FE93070400138507008E
:100930008320C1020324810283244102032901028E
:100940008329C1011301010367800000130101FB2A
:10095000232611042324810423229104232021052A
:10096000232E3103232C4103232EA100232CB1007D
:10097000232AC1002328D1002326E1002324F100EB
:1009800023220101130A000093090000832481013E
:100990008327810163980702930700032302F10272
:1009A000A302010293074102832681000326C100AE
:1009B000938507000325C101EFF01FE693070500AB
:1009C0006F00000E832701016384070203274101A2
:1009D0009307A000631EF7008327810163DA0700F5
:1009E000130A100083278101B307F04093840700A6
:1009F000130441021304B400230004006F00000438
:100A000083274101B3F7F40213890700930790008D
:100A100063D8270183274100938767FC3309F900D6
:100A20009377F90F1304F4FF9387070393F7F70FF6
:100A30002300F40083274101B3D4F402E39204FCC1
:100A400063020A048327C1006388070283278100A9
:100A500093F72700638207029305D0020325C101A3
:100A6000EFF0DFD5938919008327C1009387F7FF43
:100A70002326F1006F0000011304F4FF9307D00256
:100A80002300F400832681000326C100930504009F
:100A90000325C101EFF05FD893070500B387F90084
:100AA000138507008320C1040324810483244104A7
:100AB000032901048329C103032A810313010105CA
:100AC00067800000130101FC232E1102232C8102F8
:100AD000232A910223282103232631032326A10060
:100AE0002324B1002322C100130400006F00802CD6
:100AF0008327810003C70700930750026314F72878
:100B000083278100938717002324F1001309000035
:100B1000930409008327810083C707006384072AA1
:100B20008327810003C70700930750026300F7265D
:100B30008327810003C707009307D0026314F702DD
:100B400083278100938717002324F10013091000E5
:100B50006F00400183278100938717002324F10051
:100B6000136929008327810003C707009307000347
:100B7000E302F7FE6F0080029307A000B384F40243
:100B80008327810083C70700938707FDB384F400A0
:100B900083278100938717002324F1008327810096
:100BA00003C707009307F00263FAE7008327810079
:100BB00003C7070093079003E3F0E7FC8327810056
:100BC00003C70700930730076316F7048327410024
:100BD000138747002322E10083A7070093890700BA
:100BE00063860900938709006F00C000B7270000E3
:100BF000938747DC9306090013860400938507005A
:100C00000325C100EFF05FC1930705003304F40032
:100C10006F0080198327810003C7070093074006F0
:100C2000631EF70283274100138747002322E10058
:100C300083A5070013081006930709001387040013
:100C4000930610001306A0000325C100EFF01FD08B
:100C5000930705003304F4006F000015832781001B
:100C600003C7070093078007631EF702832741002D
:100C7000138747002322E10083A50700130810060D
:100C80009307090013870400930600001306000170
:100C90000325C100EFF09FCB930705003304F40058
:100CA0006F0080108327810003C70700930780052A
:100CB000631EF70283274100138747002322E100C8
:100CC00083A5070013081004930709001387040085
:100CD00093060000130600010325C100EFF01FC7B3
:100CE000930705003304F4006F00000C8327810094
:100CF00003C7070093075007631EF70283274100CD
:100D0000138747002322E10083A50700130810067C
:100D10009307090013870400930600001306A00040
:100D20000325C100EFF09FC2930705003304F400D0
:100D30006F0080078327810003C7070093073006F1
:100D40006314F70683274100138747002322E1003D
:100D500083A7070093F7F70F230EF100A30E0100FE
:100D60009307C101930609001386040093850700C9
:100D70000325C100EFF05FAA930705003304F400D8
:100D80006F008002130000006F008000130000005D
:100D90008327810083C70700938507000325C100CF
:100DA000EFF0DFA11304140083278100938717005D
:100DB0002324F1008327810083C70700E39A07D229
:100DC0006F008000130000008327C10063880700C4
:100DD0008327C10083A7070023800700930704002F
:100DE000138507008320C103032481038324410367
:100DF000032901038329C102130101046780000054
:100E0000130101FB232611022326A100232AB1028C
:100E1000232CC102232ED1022320E1042322F1043A
:100E20002324010523261105930701052324F1003E
:100E300083278100938747FE232EF1008327C1017A
:100E4000138607008325C10013050000EFF09FC73C
:100E500093070500138507008320C10213010105D4
:100E600067800000130101FB232611022326A10045
:100E70002324B100232CC102232ED1022320E1041C
:100E80002322F104232401052326110593070105DC
:100E90002322F10083274100938787FE232EF10050
:100EA0000327C1019307C1001306070083258100B2
:100EB00013850700EFF01FC1930705001385070096
:100EC0008320C1021301010567800000130101FBAB
:100ED000232611022326A1002324B1002322C100CE
:100EE000232ED1022320E1042322F104232401052F
:100EF00023261105930701052320F1008327010014
:100F00009387C7FE232EF1000327C1019307C10079
:100F1000130607008325410013850700EFF09FBAF1
:100F200093070500138507008320C1021301010503
:100F300067800000130101FE2326A1002324B100D5
:100F40008327810093F7F701232EF1008327C10047
:100F50000327C10133D7E7008326C101B306D04080
:100F600093F6F601B397D700B3E7E70013850700C0
:100F70001301010267800000130101FE2326A10076
:100F80008327C10093F7F70F232EF1008327C100B9
:100F900093D7870093F7F70F232CF1008327C10025
:100FA00093D7070193F7F70F232AF1008327C10096
:100FB00093D787012328F1008327C1011397870066
:100FC000832781013367F7008327410193978701C6
:100FD0003367F7008327010193970701B367F70091
:100FE000138507001301010267800000130101FF50
:100FF000F377043093F787002326F100B72700002A
:1010000083C707DE63920706F32710FC93D76700B8
:1010100093F777002324F10083278100638A070276
:10102000032781009307500063E4E70283278100D0
:101030009387270013071000B317F70013870700E3
:10104000B7270000938707DE23A2E7006F000001A7
:10105000B7270000938707DE23A20700B727000009
:10106000130710002380E7DE8327C1002322F1004D
:1010700083274100F3A7073013000000130000008E
:101080001301010167800000130101FF2326A10065
:101090008327C100639A0702F32700FC13F7770048
:1010A0009307600063EEE700F32700FC93F77700F7
:1010B0009387670013071000B317F7006F008003D2
:1010C000930700006F000003F32710FC13F777006D
:1010D0009307600063EEE700F32710FC93F77700B7
:1010E0009387670013071000B317F7006F008000A5
:1010F00093070000138507001301010167800000BA
:10110000130101FF2326A1008327C100639C070070
:10111000F32700FC93D7370093F7770093871700E6
:101120006F004001F32710FC93D7370093F7770047
:1011300093871700138507001301010167800000E2
:10114000130101FD232611022326A1002324B1004F
:10115000B727000083C707DE63940700EFF01FE99D
:10116000B7270000938707DE83A74700232EF100EF
:101170000327C10083278100B307F7009387F7FF98
:10118000232CF1008327C101B307F0400327C100DE
:10119000B377F7002326F1006F0000028327C10018
:1011A0007390B77C7350C47C0327C1008327C101AF
:1011B000B307F7002326F1000327C100832781012D
:1011C000E3FEE7FC13000000130000008320C102CF
:1011D0001301010367800000130101FE232E11009B
:1011E000232C8100B727000083C707DE6394070024
:1011F000EFF0DFDFB7270000938707DE83A7470004
:101200002324F10013050000EFF09FEF1304050005
:1012100013050000EFF05FE793070500B307F40242
:1012200003278100B307F7022322F10023260100E0
:101230006F0000028327C1007390B77C7350CC7C91
:101240000327C10083278100B307F7002326F1009D
:101250008327C10003274100E3EEE7FC13000000F1
:10126000130000008320C101032481011301010246
:1012700067800000130101FD232611022326A1002F
:101280002324B100B727000083C707DE639407005B
:10129000EFF0DFD5B7270000938707DE83A747006D
:1012A000232EF1000327C10083278100B307F70035
:1012B0009387F7FF232CF1008327C101B307F04088
:1012C0000327C100B377F7002326F1006F00000267
:1012D0008327C1007390B77C73D0C07C0327C10003
:1012E0008327C101B307F7002326F1000327C100BC
:1012F00083278101E3FEE7FC1300000013000000D8
:101300008320C1021301010367800000130101FD66
:10131000232611022326A1002324B100B7270000B1
:1013200083C707DE63940700EFF05FCCB7270000A8
:10133000938707DE83A74700232EF1000327C10010
:1013400083278100B307F7009387F7FF232CF10071
:101350008327C101B307F0400327C100B377F7002B
:101360002326F1006F0000028327C1007390B77C31
:101370007350C07C0327C1008327C101B307F70066
:101380002326F1000327C10083278101E3FEE7FC48
:1013900013000000130000008320C10213010103A9
:1013A00067800000130101FD232611022326A100FE
:1013B0002324B100B727000083C707DE639407002A
:1013C000EFF0DFC2B7270000938707DE83A747004F
:1013D000232EF1000327C10083278100B307F70004
:1013E0009387F7FF232CF1008327C101B307F04057
:1013F0000327C100B377F7002326F1006F00000236
:101400008327C1007390B77C7350C17C0327C10050
:101410008327C101B307F7002326F1000327C1008A
:1014200083278101E3FEE7FC1300000013000000A6
:101430008320C1021301010367800000130101FD35
:10144000232611022326A1002324B100F3770430C0
:1014500093F78700232EF100832581000325C10027
:10146000EFF01FCE8327C101232CF10083278101D8
:10147000F3A7073013000000130000008320C1020F
:101480001301010367800000130101FE232E1100E8
:10149000F377043093F787002326F100EFF0DFD3D2
:1014A0008327C1002324F10083278100F3A707309D
:1014B00013000000130000008320C101130101028A
:1014C00067800000130101FD232611022326A100DD
:1014D0002324B100F377043093F78700232EF10023
:1014E000832581000325C100EFF0DFD88327C101E8
:1014F000232CF10083278101F3A70730130000009C
:10150000130000008320C102130101036780000063
:10151000130101FD232611022326A1002324B1007B
:10152000F377043093F78700232EF10083258100A1
:101530000325C100EFF09FDD8327C101232CF100BB
:1015400083278101F3A70730130000001300000078
:101550008320C1021301010367800000130101FD14
:10156000232611022326A1002324B100F37704309F
:1015700093F78700232EF100832581000325C10006
:10158000EFF05FE28327C101232CF1008327810163
:10159000F3A7073013000000130000008320C102EE
:1015A0001301010367800000130101FE232E1100C7
:1015B000B727000083C707DE63940700EFF01FA37F
:1015C000F377043093F787002326F1007350C37C30
:1015D000130000008327C1002324F100832781002A
:1015E000F3A7073013000000130000008320C1019F
:1015F0001301010267800000130101F4232E110A78
:10160000232C810A232A910A2328210B2326310B1C
:101610002324410B2322510B2320610B232E71091C
:10162000232C8109232A91091304010C2326A4F4F5
:101630002324B4F49307010093840700B727000024
:1016400083C707DE63940700EFF05F9AB7270000B7
:10165000938707DE83A747002326F4FC8327C4FC77
:10166000138707001307F7FF2324E4FC138C0700FC
:10167000930C00001357DC01939A3C00B36A5701A6
:10168000131A3C00138B0700930B00001357DB0168
:1016900093993B00B369370113193B009387F70017
:1016A00093D74700939747003301F1409307010018
:1016B000938707002322F4FC8327C4FCB307F04080
:1016C0000327C4F4B377F7002320F4FC032784F442
:1016D0008327C4FCB307F7001387F7FF8327C4FCF5
:1016E000B307F040B377F700232EF4FA8327C4FC46
:1016F0009387F7FF032784F4B377F700232CF4FADA
:10170000032704FC8327C4F4637CF706032704FC47
:101710008326C4F4832704FCB387F640232AE4FA23
:10172000032744FC2328E4FA2326F4FA832744FB06
:101730002324F4FA832704FB2322F4FA232004FA57
:101740006F000003832704FA032784FA3307F700A6
:10175000832704FA832644FAB387F6000347070079
:101760002380E700832704FA938717002320F4FAE5
:10177000832704FA0327C4FAE3E6E7FC130000001A
:10178000032784F48327C4FB6370F708832684F45B
:10179000032744FC832784FB3307F7000326C4FB9D
:1017A000832784F4B307F640232ED4F8232CE4F8DF
:1017B000232AF4F88327C4F92328F4F8832784F92B
:1017C0002326F4F8232404F86F000003832784F809
:1017D000032704F93307F700832784F88326C4F826
:1017E000B387F600034707002380E700832784F8C8
:1017F000938717002324F4F8832784F8032744F9F8
:10180000E3E6E7FC130000008327C4F42322F4F886
:1018100093051000032544F8EFF09FCF130000005C
:10182000032704FC8327C4F4637CF706032704FC26
:101830008326C4F4832704FCB387F640832644FC44
:101840002320D4F8232EE4F6232CF4F6832704F87F
:10185000232AF4F68327C4F72328F4F6232604F674
:101860006F0000038327C4F6032744F73307F7000C
:101870008327C4F6832604F7B387F60003470700DF
:101880002380E7008327C4F6938717002326F4F606
:101890008327C4F6032784F7E3E6E7FC1300000080
:1018A000032784F48327C4FB6370F708032744FCF1
:1018B000832784FBB306F700032784F40326C4FBC5
:1018C000832784F4B307F6402324D4F62322E4F6D6
:1018D0002320F4F6832784F6232EF4F4832744F69A
:1018E000232CF4F4232A04F46F000003832744F527
:1018F0000327C4F53307F700832744F5832684F5CF
:10190000B387F600034707002380E700832744F5E9
:1019100093871700232AF4F4832744F5032704F65A
:10192000E3E6E7FC1300000013810400130000004D
:10193000130104F48320C10B0324810B8324410B86
:101940000329010B8329C10A032A810A832A410A38
:10195000032B010A832BC109032C8109832C410924
:101960001301010C67800000130101FE232E1100FA
:101970002326A1002324B100832581000325C10073
:10198000EFF05FB4130000008320C10113010102D6
:1019900067800000130101FB232611042326A10008
:1019A0002324B100F377043093F78700232EF1024C
:1019B000B727000083C707DE63940700EFF00FE34B
:1019C000B7270000938707DE83A74700232CF10287
:1019D0000327C10083278100B307F700232AF10200
:1019E0000327C10083278103B307F7001387F7FF9D
:1019F00083278103B307F040B377F7002328F10270
:101A000083278103B307F04003274103B377F7002F
:101A10002326F102032701038327C10263FEE700A7
:101A20008327C1002324F1029305100003258102BE
:101A3000EFF0DFB26F0000070327C1008327010327
:101A4000637EF7008327C1002322F1029305100073
:101A500003254102EFF09FB01300000003270103AC
:101A60008327C102637EF7000327C1028327010396
:101A7000B307F7409385070003250103EFF05FA943
:101A80000327C10283274103637EF70083274103B5
:101A90002320F1029305100003250102EFF01FAC93
:101AA000130000008327C103232EF1008327C10107
:101AB000F3A7073013000000130000008320C104C7
:101AC0001301010567800000130101FC232E1102A0
:101AD0002326A1002324B100F377043093F7870075
:101AE0002326F102B727000083C707DE63940700AF
:101AF000EFF0CFCFB7270000938707DE83A747001B
:101B00002324F1020327C10083278100B307F700D4
:101B10002322F1020327C10083278102B307F700C4
:101B20001387F7FF83278102B307F040B377F700ED
:101B30002320F10283278102B307F04003274102EB
:101B4000B377F700232EF100032701028327C10199
:101B500063FAE700832541020325C100EFF0DFA906
:101B60006F0080050327C100832701026378F70017
:101B7000832501020325C100EFF01FA803270102FE
:101B80008327C101637EF7000327C1018327010278
:101B9000B307F7409385070003250102EFF05F9735
:101BA0000327C101832741026378F700832541029F
:101BB0000325C101EFF05FA48327C102232CF100AC
:101BC00083278101F3A707301300000013000000F2
:101BD0008320C10313010104678000003D432A876D
:101BE0006373C3029377F700C1E3B5E5937606FF0D
:101BF0003D8ABA960CC34CC30CC74CC74107E36B74
:101C0000D7FE11E28280B306C3408A069702000025
:101C1000B38656006780C6002307B700A306B70047
:101C20002306B700A305B7002305B700A304B70038
:101C30002304B700A303B7002303B700A302B70030
:101C40002302B700A301B7002301B700A300B70028
:101C50002300B700828093F5F50F93968500D58D0C
:101C600093960501D58D59B79396270097020000EA
:101C700096968682E78086FA9680C1171D8F3E96DB
:081C8000E373C3F89DB70100F6
:101C88000D0A4974277320616E2041746F6D696372
:101C980020496E737472756374696F6E2064656D24
:101CA8006F2E0D0A0D0A00000D0A41746F6D6963ED
:101CB80020696E737472756374696F6E2050415336
:101CC80053210000616D6F737761702E77203A2081
:101CD8006F6C6476203D20307825780D0A0000006E
:101CE800616D6F6164642E77203A206F6C64762092
:101CF8003D20307825780D0A00000000616D6F786E
:101D08006F722E77203A206F6C6476203D203078F1
:101D180025780D0A00000000616D6F616E642E77F2
:101D2800203A206F6C6476203D20307825780D0AA3
:101D380000000000616D6F6F722E77203A206F6C83
:101D48006476203D20307825780D0A00616D6F6D2E
:101D5800696E2E77203A206F6C6476203D203078AB
:101D680025780D0A00000000616D6F6D61782E778F
:101D7800203A206F6C6476203D20307825780D0A53
:101D880000000000616D6F6D696E752E77203A2036
:101D98006F6C6476203D20307825780D0A000000AD
:101DA800616D6F6D6178752E77203A206F6C64765F
:101DB800203D20307825780D0A000000286E756CCB
:031DC8006C290083
:00000001FF
